:020000040800F2
:1000000020050020A101000895170008D915000857
:100010001D1700082D0600085120000800000000F0
:10002000000000000000000000000000B3170008FE
:100030009F06000800000000B11700080D18000816
:10004000BB010008BB010008BB010008BB010008A0
:10005000BB010008BB010008AF060008BB01000897
:10006000BB010008BB010008BB010008BB01000880
:10007000BB010008BB010008BB010008BB01000870
:10008000BB010008BB010008BB010008BB01000860
:10009000BB010008BB010008BB010008BB01000850
:1000A000BB010008BB010008BB010008BB01000840
:1000B000BB0100081D1A0008BB010008BB010008B5
:1000C000BB010008BB010008BB010008BB01000820
:1000D000BB010008BB010008BB010008BB01000810
:1000E000BB010008BB010008BB010008BB01000800
:1000F000BB010008BB010008BB010008BB010008F0
:10010000BB010008BB010008BB010008BB010008DF
:10011000BB010008BB010008BB010008BB010008CF
:10012000BB010008BB010008BB010008BB010008BF
:10013000BB010008BB010008BB010008BB010008AF
:10014000BB010008BB010008BB010008BB0100089F
:10015000BB010008BB010008BB010008BB0100088F
:10016000BB010008BB010008BB010008BB0100087F
:10017000BB010008BB010008BB0100080000000033
:10018000BB010008BB010008DFF810D000F03CFA0A
:100190000048004779230008AFF3008020050020C5
:1001A0000648804706480047FEE7FEE7FEE7FEE711
:1001B000FEE7FEE7FEE7FEE7FEE7FEE705190008BB
:1001C000890100082DE9F05F0546002092469B4614
:1001D00088460646814640241BE02846414647465D
:1001E000224600F092F953465A46C01A914110D364
:1001F00011461846224600F079F92D1A67EB0108DE
:100200004F4622460120002100F070F917EB00094B
:100210004E41201EA4F10104DFDC484631462A4647
:100220004346BDE8F09F40EA01039B0703D009E085
:1002300008C9121F08C0042AFAD203E011F8013BD2
:1002400000F8013B521EF9D27047D2B201E000F82B
:10025000012B491EFBD270470022F6E710B513466A
:100260000A4604461946FFF7F0FF204610BD2DE967
:10027000FE4F804681EA0300C00F0C46009021F03B
:10028000004123F00045B8EB0200A94105D24046E9
:10029000214690461C460B46024623F00040104380
:1002A00047D0270DC7F30A00C3F30A510290401A42
:1002B000019040286BDAC3F3130040F4801B0098D0
:1002C000924620B10023D2EB030A63EB0B0B01989B
:1002D0005946C0F14002504600F008F906460D4666
:1002E00050465946019A00F020F910EB0800614190
:1002F000002487EA115284EAE7731A4340D0009A37
:1003000062B3019A012A4FEA075215DC001B61EB28
:1003100002014FF0004202EA0752CDE90042001C00
:1003200041F5801132462B4600F020F903B0BDE8BC
:10033000F08F40462146F9E7001B61EB0201001CEB
:1003400041F5801300185B412018A2F5001747EB18
:10035000030140EAD570B6196D4111E06D084FEA0E
:10036000360645EAC0754FEA0752001B61EB0201F1
:10037000001C41F5801149084FEA30000019514135
:1003800032462B4603B0BDE8F04F00F0E0B80098CD
:10039000012240000023D0EB020263EBE0730098DF
:1003A00021464FEAE074B8EB000061EB0401E9E795
:1003B00083F000435BE781F0004158E72DE9FE4FF1
:1003C00081EA030404F0004421F0004100944FF05E
:1003D000000B23F0004350EA01045ED052EA03040C
:1003E0005BD0C3F30A54C1F30A552C44A4F2F3348E
:1003F0000194A0FB0254C1F3130141F48011C3F333
:10040000130343F4801301FB024400FB034E840AF0
:10041000970A44EA815447EA8357A4FB0768029588
:100420008D0A05FB07854FEA932C04FB0C54270526
:10043000029D4FEA065847EA1637B5EB08056EEB02
:10044000070C870E920E47EA811742EA8312A7FB38
:100450000201B6EB0B0164EB00042B0D43EA0C33F5
:100460005E1844EB1C50DA465146E7FB0201C5F327
:1004700013044FEA0B3343EA14534FEA0432019C4E
:1004800043EA0603A4F10C040294009CCDE900B4F5
:1004900000F06CF803B0BDE8F08F00200146F9E7EA
:1004A0000EB540F2334102910021CDE900110A4618
:1004B0000B4600F05BF803B000BDC1F30A5210B563
:1004C000C1F3130140F2FF3341F480119A4201DA83
:1004D000002010BD40F233439A42A2F2334203DCC3
:1004E000524200F012F810BD904010BD202A04DBEB
:1004F000203A00FA02F1002070479140C2F1200337
:1005000020FA03F3194390407047202A04DB203A75
:1005100021FA02F00021704721FA02F3D040C2F123
:1005200020029140084319467047202A06DBCB176A
:10053000203A41FA02F043EAE07306E041FA02F39E
:10054000D040C2F12002914008431946704710B5CF
:10055000141E73F1000408DA401C41F100019218E6
:100560005B411A4301D120F0010010BD2DE9F04D8F
:1005700092469B4611B1B1FA81F202E0B0FA80F2E4
:1005800020329046FFF7B2FF04460F4640EA0A00C9
:1005900041EA0B0153465A46084313D0114653EA29
:1005A000010019D0C8F140025046FFF7AEFF0546E2
:1005B0000E46504659464246FFF798FF084305D07D
:1005C000012004E020463946BDE8F08D00200543B7
:1005D00046EAE0762C4337430A986305E40AA0EB29
:1005E00008000022FD0A44EA47540A3002D50020E0
:1005F0000146E9E7010510196941DDE908450019DF
:100600006941BDE8F04DA2E7064C074D06E0E06801
:1006100040F0010394E8070098471034AC42F6D349
:10062000FFF7B6FDE823000808240008FEE70000F5
:1006300000B587B014216846FFF70EFE0E48002172
:10064000026842F001020260006800F001000590BB
:10065000012000900948CDE901016946084800F0F1
:1006600065F800221146062000F0BEF9062000F0D1
:10067000AEF907B000BD0000303802400000111094
:100680000000024010B5B4214FF4007001F092F860
:10069000BDE8104000214FF4006001F08BB87047B6
:1006A00010B501F0F5FCBDE8104001F074B8012070
:1006B00000F030B810B5074C00224FF4004120463E
:1006C00000F00EF920460122BDE81040110300F0B1
:1006D00007B90000000C024010B5064C0122D103FE
:1006E000204600F0FDF80022A1142046BDE810408D
:1006F00000F0F6B8000C024010B5012801D000BF90
:1007000010BD062000F052F901490120087010BD0B
:1007100000000020044910B50A68024202D00860B7
:10072000FFF7EAFF10BD0000143C01402DE9F84F2F
:10073000DFF880B100224FF003094FF00F0A0BF1F0
:10074000040E01250B6895402B40AB4272D14C68DA
:10075000012C05D0022C03D0112C01D0122C10D169
:100760008668540009FA04F7BE43CF68A7403743B0
:10077000876046680C79AE43C4F300149440344358
:100780004460C468570009FA07F58E68AC43BE4060
:100790002643C6604C68022C01D0122C12D1D4081A
:1007A00000EB840CDCF820605407E40E0AFA04F82D
:1007B00026EA0806D1F8108008FA04F848EA060884
:1007C000CCF820800468AC430D7905F00305BD40EA
:1007D000254305604C68E40065D5374C256845F431
:1007E00080452560246822F0030504F480440094C9
:1007F000324C2E19D6F808789407250F0AFA05F41A
:10080000A7432F4CA04201D1002424E02D4CA0424C
:1008100001D101241FE02C4CA04201D102241AE096
:100820002A4CA04201D1032415E0294CA04202D158
:10083000042410E037E0274CA04201D105240AE04F
:10084000254CA04201D1062405E0244CA04201D150
:10085000072400E00824AC403C43C6F80848DBF815
:1008600000405D464E689C43F60300D51C432C6057
:10087000DEF8004075464E689C43B60300D51C4325
:100880002C600C4D08352C684E689C43F60200D550
:100890001C432C60074D0C352C684E689C43B602F7
:1008A00000D51C432C60521C102AFFF44AAFBDE84F
:1008B000F88F0000003C0140443802400030014005
:1008C000000002400004024000080240000C024008
:1008D000001002400014024000180240001C0240B8
:1008E0000AB1816170470904FBE700000148806894
:1008F000704700001000002002488168027811440F
:1009000081607047100000200B4810B5016841F469
:1009100000710160016841F480610160016841F487
:1009200080710160032000F07FF8002000F006F8DD
:1009300000F024F8002010BD003C024070B50D4DC1
:1009400004464FF47A712878B1FBF0F00A4909683F
:10095000B1FBF0F000F008FB48B9102C07D20022E0
:100960002146501E00F040F800206C6070BD012050
:1009700070BD0000100000201C0000200A4808B5CF
:10098000016841F480410160006800F480400090FB
:100990000548001F016841F080510160006800F0C7
:1009A0008050009008BD00004438024000280DDB54
:1009B00000F01F02012191404009800000F1E02079
:1009C000C0F88011BFF34F8FBFF36F8F70470028BF
:1009D00009DB00F01F02012191404009800000F175
:1009E000E020C0F800117047F0B40E4B1B68C3F351
:1009F0000223C3F10704042C00D904241D1D072D74
:100A000001D2002300E0DB1E012606FA04F56D1E6C
:100A10000D409D409E40761E164045EA0601F0BC02
:100A200001F017BB0CED00E0064A00F0070110686A
:100A30004FF6FF03184040EA0120034908431060C5
:100A4000704700000CED00E00000FA052DE9F047CA
:100A50000D46040065D0DFF81491D9F80000EFB21C
:100A600000F00F00A84207D289F80070D9F8000002
:100A700000F00F00A84254D120683D4E810712D5E6
:100A8000400703D5306840F4E0503060207800071C
:100A900003D5306840F4604030603068A16820F0D1
:100AA000F000084330602078C0072DD030496068DE
:100AB0000839012812D0022813D0032811D0096860
:100AC000890700292DDA316821F0030101433160E3
:100AD000FFF70CFF804641F2883A0EE0096889036F
:100AE000EFE709688901ECE7FFF700FFA0EB0801D9
:100AF000514502D90320BDE8F0873068616800F0F5
:100B00000C00B0EB810FEFD1D9F80010484601F08E
:100B10000F01A94207D90770006800F00F00A84232
:100B200001D00120E7E72078400705D53068E1686B
:100B300020F4E050084330602078000706D5306884
:100B4000216920F4604040EAC100306000F038F8CC
:100B50003168084AC1F30311515CC8400649086076
:100B600006480068FFF7EAFE0020C4E7003C0240A8
:100B700008380240D02300081C0000201400002088
:100B80000448054900680968044AC1F38221515CA0
:100B9000C84070471C00002008380240E0230008CD
:100BA0000448054900680968044AC1F34231515CB0
:100BB000C84070471C00002008380240E0230008AD
:100BC000154810B5006810F00C01144813D04310FC
:100BD00004290FD008290ED10F4C241F216801F0E1
:100BE0003F022168490207D52068C0F38810A0FBA6
:100BF000030106E0184610BD2168C1F38811A1FB6E
:100C000000010023FFF7DEFA2168C1F30141491C0E
:100C10004900B0FBF1F010BD083802400024F40098
:100C20002DE9F84F040075D02078DFF828A3C0071D
:100C3000AAF1040548D00AF104000168C1F381015A
:100C4000012908D00068C0F3810002280AD1DAF82F
:100C50000000400206D52868800335D5606800286A
:100C6000E1D031E06068B0F5803F10D0B0F5A02F42
:100C7000286810D020F480302860286820F4802074
:100C800028606068A0B1FFF731FE06460CE02868D6
:100C900040F48030F4E740F480202860F7E7FFF765
:100CA00025FE801B642871D828688003F7D50BE0E7
:100CB000FFF71CFE064604E0FFF718FE801B6428C1
:100CC000F1D828688003F7D42078DFF88C92800769
:100CD0004FF0000B3DD59F48001D016811F00C0F2F
:100CE00008D00068C0F3810002280AD1DAF80000B9
:100CF000400206D42868800715D5E068012809D18C
:100D000011E0E068B8B10121C9F80010FFF7EEFD6D
:100D1000064605E01AE1FFF7E9FD801B0228C2D86C
:100D200028688007F7D52868216920F0F80040EA94
:100D3000C10028600DE0C9F800B0FFF7D7FD0646F6
:100D400004E0FFF7D3FD801B02281FD82868800726
:100D5000F7D42078000722D57E4F8048616970372C
:100D600071B101210160FFF7C1FD064604E0FFF704
:100D7000BDFD801B022809D838688007F7D50EE032
:100D8000C0F800B0FFF7B2FD064605E082E0FFF7CD
:100D9000ADFD801B02287DD838688007F7D4207805
:100DA000400765D56B484FF000083C300068C00034
:100DB0000BD468483C30016841F080510160006804
:100DC0004FF0010800F080500090654F3868C00572
:100DD0000FD4386840F480703860FFF787FD06460E
:100DE00004E0FFF783FD801B022853D83868C00554
:100DF000F7D5584FA0686C3701280FD00528386800
:100E000010D020F001003860386820F0040038600D
:100E1000A068B0B1FFF76AFD06460EE0386840F002
:100E20000100F4E740F004003860F7E7FFF75EFDEB
:100E3000811B41F28830814263D838688007F5D53C
:100E40000DE0FFF753FD064606E0FFF74FFD811B5F
:100E500041F28830814254D838688007F5D4B8F11F
:100E6000000F05D03B483C30016821F08051016003
:100E7000A069B8B33749091D0968C1F38101022986
:100E800046D00228584606D0C9F86000FFF72EFD6C
:100E9000044639E035E04F46C9F86000FFF726FD0B
:100EA000064604E0FFF722FD801B022829D82868A7
:100EB0008001F7D4D4E907010843A16A294A490807
:100EC00002EB0141626A41EA8211084394F82C1056
:100ED00040EA0161CAF8001001203866FFF706FDFC
:100EE000044605E034E0FFF701FD001B022808D8A6
:100EF00028688001F7D52BE0FFF7F8FC001B0228DB
:100F000002D90320BDE8F88F28688001F4D41FE0DF
:100F10000128F7D0DAF80000E26900F4800191427C
:100F200014D1226A00F03F0191420FD147F6C071FF
:100F3000626A0140914209D1A26A00F440319142B3
:100F400004D1E16A00F07060884201D00120D9E745
:100F50000020D7E70438024000004742800E474295
:100F6000007000400000FFFF10B5401EB0F1807F10
:100F700001D3012010BD4FF0E02460610F21601704
:100F800001F067F80020A06107202061002010BD5B
:100F90007047704710B590F83C20012A22D00122FA
:100FA00080F83C20CA688C6822F4407222434C6866
:100FB00022F4806222430C6822F4006222430C690E
:100FC00022F4805222434C6922F400522243C96920
:100FD000002322F480420A4301684A6480F83C30CE
:100FE000002010BD022010BD70B590F83C20012AF1
:100FF00032D0012580F83C50022280F83D20026862
:101000005368946823F070060B6833435360134BA6
:1010100002689A4214D0B2F1804F11D0104B9A421C
:101020000ED0104B9A420BD00F4B9A4208D00F4B68
:101030009A4205D00E4B9A4202D00E4B9A4204D1EE
:10104000496824F080031943916080F83D500021E5
:1010500080F83C10084670BD022070BD00000140C1
:101060000004004000080040000C00400004014063
:10107000004001400018004010B5040003D094F86F
:101080003D0010B107E0012010BD002084F83C00B5
:10109000204600F00CF8022084F83D00211D206855
:1010A00000F05AFD012084F83D00002010BD70477B
:1010B0000168CA6842F00102CA600068816801F0F4
:1010C0000701062903D0016841F0010101600020F9
:1010D00070470168CA6822F00102CA600068016AAC
:1010E00041F21112114207D1016A9210114203D14B
:1010F000016821F0010101600020704770B50446CD
:1011000090F83C00012817D0012584F83C500220BB
:1011100084F83D002068826822F0770222F47F4242
:1011200082600868502830D00DDC20284DD005DCC6
:1011300098B310283BD148E0022070BD302844D03D
:10114000402834D139E0602828D0702806D0B0F586
:10115000805F2CD0B0F5005F29D10AE0CB68D1E9DF
:101160000121206800F069FD2068816841F0770165
:1011700009E0CB68D1E90121206800F05EFD20681C
:10118000816841F48041816011E0CA684968206843
:1011900000F028FE5021206807E016E0CA68496880
:1011A000206800F030FE6021206800F050FD84F8D7
:1011B0003D50002084F83C0070BDCA684968206832
:1011C00000F010FE40212068EFE72268014610463B
:1011D000EBE7704770B50446006801694FF0000501
:1011E000C943890715D4C168C943890711D4E91EC9
:1011F000016101202077206880698007204602D0A5
:10120000FFF7E7FF04E000F098F8204600F01AF935
:10121000257720680169C943490717D4C168C943C4
:10122000490713D46FF00401016102202077206880
:10123000806910F4407F204602D0FFF7CAFF04E027
:1012400000F07BF8204600F0FDF825772068016962
:10125000C943090716D4C168C943090712D46FF0FE
:1012600008010161042020772068C06980072046BA
:1012700002D0FFF7AEFF04E000F05FF8204600F078
:10128000E1F8257720680169C943C90617D4C16808
:10129000C943C90613D46FF01001016108202077FB
:1012A0002068C06910F4407F204602D0FFF791FF0C
:1012B00004E000F042F8204600F0C4F825772068EA
:1012C0000169C943C90708D1C168C943C90704D125
:1012D000891E0161204600F0D9F820680169C943E0
:1012E000090609D4C168C943090605D46FF0800115
:1012F00001612046FFF74CFE20680169C943490699
:1013000009D4C168C943490605D46FF040010161A1
:10131000204600F0D1F820680169C94389060BD442
:10132000C168C943890607D46FF0200101612046D6
:10133000BDE87040FFF72DBE70BD704770B5044624
:1013400090F83C000D4601280DD0012684F83C6041
:10135000022084F83D0042B1042A18D0082A2AD07D
:101360000C2A4DD139E0022070BD206800F078FCD5
:101370002068816941F0080181612068816921F05C
:1013800004018161206881692A69114311E02068A4
:1013900000F096FC2068816941F400618161206859
:1013A000816921F480618161206881692A6941EA4B
:1013B0000221816124E0206800F0B8FC2068C16946
:1013C00041F00801C1612068C16921F00401C161D7
:1013D0002068C1692A69114311E0206800F0DAFC35
:1013E0002068C16941F40061C1612068C16921F4CC
:1013F0008061C1612068C1692A6941EA0221C16135
:1014000084F83D60002084F83C0070BD10B50400F5
:1014100003D094F83D0010B107E0012010BD00207A
:1014200084F83C00204600F00CF8022084F83D00CF
:10143000211D206800F090FB012084F83D00002071
:1014400010BD70477047000010B5044600680122C7
:1014500000F0E6FB0B482168814202D00A48814235
:1014600003D1486C40F4004048642068816801F072
:101470000701062903D0016841F001010160002045
:1014800010BD0000000001400004014010B50068DC
:101490000649884208D11D20FFF788FA0448FFF763
:1014A00018FE04490120487010BD000000040040EF
:1014B0006000002000000020704770B5040004D0D8
:1014C00094F83900002510B106E0012070BD84F8C1
:1014D0003850204600F022F8242084F83900206893
:1014E000C16821F40051C160204600F0ABFC2068C7
:1014F000016921F4904101612068416921F02A01CC
:1015000041612068C16841F40051C160E563202059
:1015100084F8390084F83A00002070BD70472DE946
:10152000F843044690F839001E4617460D46202819
:1015300050D1B5B1AFB194F8380001284AD001209C
:1015400084F838004FF00008C4F83C80212084F86B
:101550003900FFF7CBF9A7848146E78484F8388007
:1015600026E00120BDE8F883E08C401EE084A068FE
:101570004B46B0F5805F4FF000024FF080012046EF
:10158000009603D000F0F2FCE8B90DE000F0EEFCAC
:10159000C8B928882168C0F308004860206908B1EC
:1015A0006D1C05E0AD1C03E0216815F8010B4860D7
:1015B000E08C0028D8D14B460022402120460096DE
:1015C00000F0D4FC08B10320CCE7202084F83900D7
:1015D0000020C7E70220C5E7FEE710B5FFF77CF85B
:1015E00000F086FDBDE8104000F060BD00226429D7
:1015F00002D942F20F7208E039B101EBC10202EBED
:1016000001114FF0FF3202EB8102B0F5005F05D00F
:10161000B0F5804F01D10348026070470148001FB8
:10162000FAE700003C080040F0B587B01421684696
:10163000FEF712FE33480024016841F010010160FA
:10164000016801F010010591016841F00401016099
:10165000016801F004010591016841F08001016019
:10166000016801F080010591016841F0010101600C
:10167000016801F001010591016841F0020101607A
:10168000016801F002010591016841F00801016063
:1016900000684FF6FF7600F00800009605900325DD
:1016A000CDE9015469461848FFF740F8B010CDE97C
:1016B0000005694602941548FFF738F849F6FF70AF
:1016C000CDE90005694602941148FFF72FF84FF65F
:1016D000F370CDE900050F4F694602943846FFF7D5
:1016E00025F80420CDE90004694638460294FFF746
:1016F0001DF80096CDE9015469460748FFF716F832
:1017000007B0F0BD3038024000100240000802402F
:101710000000024000040240000C0240FEE700000E
:1017200030B5114887B00025016841F00201016021
:101730000068142100F0020005906846FEF78CFD59
:101740004FF4704401200094CDE901050395074D45
:1017500069462846FEF7EAFF002221462846FFF7A1
:10176000BFF807B030BD000030380240000402402E
:1017700010B5074C00224FF400412046FFF7B0F8A7
:101780000022A1142046BDE81040FFF7A9B80000D0
:10179000000C0240FEE710B55A214FF4007000F033
:1017A00009F8BDE810405A214FF4006000F002B87B
:1017B0007047704710B50446B42901D9E02010E005
:1017C0000846FEF76DFE9FED0C1B53EC112BFEF748
:1017D000F5FD9FED0B1B53EC112BFEF748FDFEF7BB
:1017E0006CFE0949B4F5007F04D0B4F5006F00D158
:1017F000886310BD486310BDABAAAAAAAAAAEA3F93
:1018000000000000008052400000014010B5FFF7CA
:1018100073F800F0CFFC124C48B11248007830B198
:101820002078072801D0401C0AE0002008E000F0E2
:10183000C1FC30B10C48007818B1207870B1401E5E
:1018400020700A48016821F4704101600168084A6B
:101850002378D25C41EA0231016010BD0720EFE736
:101860000A0000200C0000200D000020140402409B
:101870000200002030B593B030216846FEF7ECFC42
:1018800014210CA8FEF7E8FC1C480025016841F073
:1018900080510160006800F0805011901848016884
:1018A00041F4804101600068022400F480401190FE
:1018B00001200090000401908001CDE90640042041
:1018C00008906420CDE9090407200B906846FFF7D3
:1018D000A7F908B172B6FEE70CA90F2081E8310024
:1018E0004FF4A0500F90109003210CA8FFF7AEF812
:1018F000002801D072B6FEE713B030BD4038024078
:10190000007000400548016841F47001016003491E
:101910004FF00060803908607047000088ED00E0FB
:1019200010B53A489CB00024016841F00101016003
:101930000068149400F001001594169417941894FC
:10194000CDE919401C216846FEF786FC202107A836
:10195000FEF782FC2F482E4901604FF4FA71C0E96E
:10196000011440F2CF71C0E9031444618461FFF7B0
:1019700083FB4FF48050149014A92648FFF7BEFB58
:101980002448FFF743FD189418A922481994FFF73B
:101990002BFB6020CDE90004029403940494059489
:1019A000002269461B480694FFF7C8FC04226946DA
:1019B0001848FFF7C3FC0794089409944FF40050AB
:1019C0000A94CDE90B4007A912480E94FFF7E2FAFA
:1019D0000E481438016841F01001016000681421BC
:1019E00000F010001A900FA8FEF736FC4FF42060AC
:1019F0000F900220CDE910040120CDE912400FA97B
:101A00000548FEF793FE1CB010BD000044380240AC
:101A10000000014020000020001002400148FFF7B4
:101A2000D9BB00006000002010B51B4888B000241E
:101A3000016841F0020101600068009400F00200BA
:101A40000194029403940494CDE905401448134989
:101A500001604CF25031C0E9011441F28731C0E914
:101A600003148461FFF708FB4FF48050009069462F
:101A70000B48FFF743FB049404A909480594FFF7BA
:101A8000B3FA002211461D20FEF7AEFF1D20FEF71F
:101A90009EFF08B010BD0000403802400004004026
:101AA0006000002010B5284890B00024016841F083
:101AB0000401016000680C9400F00400CDE90D40C1
:101AC0001C216846FEF7C8FB21482049016041F20D
:101AD0008831C0E9011442F20F71C0E90314846136
:101AE000FFF794FC0C940CA919480D94FFF77CFAAD
:101AF0006020CDE90004029404226946144804944D
:101B0000FFF71CFC082269461148FFF717FC0E4836
:101B10001038016841F0080101600068142100F0EC
:101B200008000E9007A8FEF797FB4FF4C0400790FF
:101B30000220CDE90804CDE90A4007A90548FEF7CF
:101B4000F5FD10B010BD0000403802400008004014
:101B5000A0000020000C0240F0B50268254D264E82
:101B6000264FDFF89CC0274B4FF0804EA84209D08B
:101B7000704507D0B04205D0B84203D0604501D0CF
:101B8000984203D122F070044A682243A8421BD035
:101B9000704519D0B04217D0B84215D0604513D067
:101BA000984211D0184CA0420ED0184CA0420BD035
:101BB000174CA04208D0174CA04205D0164CA042AA
:101BC00002D0164CA04203D122F44074CA682243CA
:101BD0004C6922F08002224302608A68C2620A686D
:101BE0008262A84201D0984201D1096901630121B2
:101BF0004161F0BD000001400004004000080040C9
:101C0000000C00400004014000400140004401403D
:101C10000048014000180040001C00400020004027
:101C200010B501F01F010123046A8B409C4304623C
:101C3000036A8A401343036210BD10B5846842EA08
:101C4000032224F47F440A432243826010BD826849
:101C500022F070020A4342F00701816070470000E1
:101C6000F0B5026A22F001020262026A43688469E6
:101C7000114E24F073050C68104F2C4322F002051E
:101C80008A682A43B04201D0B84205D122F0080543
:101C9000CA682A4322F00402B04201D0B84205D1FA
:101CA0004D6923F440731D438B692B43436084616A
:101CB000496841630262F0BD000001400004014038
:101CC000F0B5026A22F010020262026A4368846977
:101CD0000D6824F4E64444EA05248D6822F02002CD
:101CE00042EA05120F4D104EA84201D0B04206D173
:101CF000CF6822F0800242EA071222F04002A84296
:101D000001D0B04207D14D6923F4406343EA850313
:101D10008D6943EA85034360846149688163026297
:101D2000F0BD00000000014000040140F0B5026A6F
:101D300022F480720262026A4368C46922F400726B
:101D400024F073050C68124E2C438D6842EA05227C
:101D50000E4DA84201D0B04206D1CF6822F40062F5
:101D600042EA072222F48062A84201D0B04207D1A1
:101D70004D6923F4405343EA05138D6943EA051383
:101D80004360C4614968C1630262F0BD0000014064
:101D90000004014030B5026A22F480520262036AF4
:101DA0004268C4690D6824F4E64444EA05248D6859
:101DB00023F4005343EA0533084DA84202D0084DEE
:101DC000A84204D14D6922F4804242EA8512426061
:101DD000C46149680164036230BD00000000014035
:101DE0000004014010B5046A036A23F00103036292
:101DF000836923F0F00343EA021324F00A020A4342
:101E00008361026210BD10B5036A23F01003036200
:101E10008469036A24F4704444EA023223F0A00384
:101E200043EA01118261016210BD00B500214FF447
:101E30000050FFF7DBFB00214FF480405DF804EB1E
:101E4000FFF7D4BB2DE9F041044600680169E26860
:101E500021F4405111430161A1682069E269014305
:101E60006069104301432068C26849F20C639A43D9
:101E70000A43C26020684169A26921F4407111439C
:101E80004161E069192764253226B0F5004F354AD3
:101E9000354920684FF0000806D0884201D09042B2
:101EA00036D1FEF77DFE35E0884201D0904202D166
:101EB000FEF776FE01E0FEF763FE61684A18A0FBBC
:101EC000070148EB0803FEF77DF90146B0FBF5F08A
:101ED0000201B1FBF5F06FF01803584301EB8000ED
:101EE00006EBC000B0FBF5F000F0F80002EB40029A
:101EF000B1FBF5F0584301EB800006EBC000B0FBEE
:101F0000F5F000F00700216810448860BDE8F0811A
:101F1000FEF736FE01466068830F8200A1FB0701D1
:101F2000FEF750F90146B0FBF5F06FF01802504390
:101F300001EB800006EB0010B0FBF5F000F0F002C2
:101F4000B1FBF5F002EB0012B1FBF5F06FF01803F6
:101F5000584301EB800006EB0010B0FBF5F000F0F9
:101F60000F00D0E700140140001001402DE9F041BE
:101F70001E46174688460446069D1CE0681C1AD07B
:101F800025B1FEF7B3FC801BA84214D92068C168B4
:101F900021F4D071C1602068416921F001014161E3
:101FA000202084F8390084F83A00002084F83800B2
:101FB0000320BDE8F0812068016838EA010004D000
:101FC0000020B842DAD00020F3E70120F9E7000052
:101FD00030B51B4887B00024016841F4003101602E
:101FE0000068184900F40030059017480C2501607E
:101FF0004FF41651C0E90114C460C0E9044584617E
:10200000C461FFF75AFA14216846FEF725F90C4817
:102010001038016841F0010101600068009500F08E
:10202000010005900220CDE9010403200390072060
:10203000049069460548FEF779FB07B030BD000003
:102040004038024000440040E00000200000024010
:10205000FEE70907090E002804DB00F1E02080F804
:102060000014704700F00F0000F1E02080F8141D0C
:10207000704702E008C8121F08C1002AFAD1704751
:102080007047002001E001C1121F002AFBD17047F8
:1020900010B500210448FFF7D7F9BDE8104004212E
:1020A0000148FFF7D1B900002000002010B50E480C
:1020B00086B00024016841F0080101600068142125
:1020C00000F0080005906846FEF7C6F84FF410408F
:1020D00000900120CDE90104694604480394FEF70D
:1020E00025FB06B010BD000030380240000C024055
:1020F00010B504210448FFF7A7F9BDE810400821F6
:102100000148FFF7A1B90000A000002000B585B08C
:10211000FEF7B8FA1549002008701549012008702B
:102120004B214003FFF762FA32214FF48040FFF762
:102130005DFA104902200870FFF71AFB14220EA165
:102140006846FEF770F84FF6FF73142269460F4891
:10215000FFF7E5F90E480068016921F0010101610E
:102160000B48FEF7A5FF05B000BD00000C000020E5
:102170000D0000200B0000204C696674206D6F7606
:10218000696E6720444F574E200D0A00E000002082
:102190006000002000B500F00DF828B90448007870
:1021A000002803D0012801D04FF0FF3000BD00000F
:1021B0000B00002003480078022801D0002070475F
:1021C000012070470B00002000B58DB0FFF72DFEF9
:1021D00020480178204821B101210170FEF76AFAF8
:1021E00006E01E49097819B100210170FEF774FA62
:1021F00018221BA16846FEF716F818221EA106A891
:10220000FEF711F8FFF7C6FF4FF6FF7320B1FFF797
:10221000C1FF012803D007E01822694601E0172218
:1022200006A91B48FFF77BF9FFF7B5FA19480068C4
:10223000016921F0010101611748016841F00101C4
:1022400001601D20FEF7C3FB0620FEF7C0FB0DB0AA
:1022500000BD00000C0000200B0000200D0000203D
:10226000466C6F6F723A2047726F756E6420466CD1
:102270006F6F72200D0A0A00466C6F6F723A20462B
:102280006972737420466C6F6F72200D0A0A000029
:10229000E000002060000020143C014000B585B043
:1022A000FEF7F0F915490120087015490020087063
:1022B00019214FF40050FFF799F932214FF4804073
:1022C000FFF794F90F4902200870FFF751FA142222
:1022D0000DA16846FDF7A7FF4FF6FF73122269466E
:1022E0000E48FFF71CF90E480068016921F0010152
:1022F00001610B48FEF7DCFE05B000BD0C000020BC
:102300000D0000200B0000204C696674206D6F7674
:10231000696E67205550200D0A000000E000002083
:102320006000002000B589B0FFF757F9FEF7B8F953
:10233000FEF77EF9FFF7F4F9202206A16846FDF7C3
:1023400072FF4FF6FF731F2269460A48FFF7E7F84E
:1023500009B000BD496E697469616C697A6174691C
:102360006F6E20436F6D706C657465203A29200D87
:102370000A0A0000E0000020FEF7C6FAFFF77AFA2A
:10238000FFF752F9FFF7CCFAFFF74EFBFFF78AFB96
:10239000FFF71EFEFFF7C6FF0C4C0025207868B142
:1023A0002570FFF7F7FE20B1FFF7F4FE012803D0F8
:1023B00004E0FFF773FF01E0FFF7A8FE6078002854
:1023C000ECD06570FFF700FFE8E700000000002098
:1023D00000000000000000000102030406070809D5
:1023E000000000000102030408240008000000208F
:1023F000200000007220000828240008200000208F
:1024000000050000822000080000080C04060203FA
:1024100001090000010000000100000010000000A0
:08242000000000000024F4009C
:040000050800018965
:00000001FF
