:020000040800F2
:1000000010050020A101000837150008091200089A
:1000100035150008AD020008F519000800000000C1
:100020000000000000000000000000003B15000878
:10003000AF02000800000000391500083D15000857
:10004000BB010008BB010008BB010008BB010008A0
:10005000BB010008BB010008B1020008BB01000899
:10006000BB010008BB010008BB010008BB01000880
:10007000BB010008BB010008BB010008BB01000870
:10008000BB010008BB010008BB010008BB01000860
:10009000BB010008BB010008BB010008BB01000850
:1000A000BB010008BB010008BB010008BB01000840
:1000B000BB010008ED150008BB010008BB010008EA
:1000C000BB010008BB010008BB010008BB01000820
:1000D000BB010008BB010008BB010008BB01000810
:1000E000BB010008BB010008BB010008BB01000800
:1000F000BB010008BB010008BB010008BB010008F0
:10010000BB010008BB010008BB010008BB010008DF
:10011000BB010008BB010008BB010008BB010008CF
:10012000BB010008BB010008BB010008BB010008BF
:10013000BB010008BB010008BB010008BB010008AF
:10014000BB010008BB010008BB010008BB0100089F
:10015000BB010008BB010008BB010008BB0100088F
:10016000BB010008BB010008BB010008BB0100087F
:10017000BB010008BB010008BB0100080000000033
:10018000BB010008BB010008DFF810D000F07CF8CC
:1001900000480047351A0008AFF300801005002022
:1001A0000648804706480047FEE7FEE7FEE7FEE711
:1001B000FEE7FEE7FEE7FEE7FEE7FEE7D1150008F3
:1001C000890100082DE9F05F0546002092469B4614
:1001D00088460646814640241BE02846414647465D
:1001E000224600F041F853465A46C01A914110D3B6
:1001F00011461846224600F028F82D1A67EB010830
:100200004F4622460120002100F01FF817EB00099D
:100210004E41201EA4F10104DFDC484631462A4647
:100220004346BDE8F09FD2B201E000F8012B491E21
:10023000FBD270470022F6E710B513460A46044683
:100240001946FFF7F0FF204610BD202A04DB203AB4
:1002500000FA02F1002070479140C2F1200320FA19
:1002600003F3194390407047202A04DB203A21FA17
:1002700002F00021704721FA02F3D040C2F12002BF
:100280009140084319467047064C074D06E0E06868
:1002900040F0010394E8070098471034AC42F6D3CD
:1002A000FFF776FF7C1A00089C1A0008FEE77047EB
:1002B000012000F003B872B6FEE77047044910B59C
:1002C0000A68024202D00860FFF7F7FF10BD000085
:1002D000143C01402DE9F84F00224FF0010803259E
:1002E0004FF00F0E0B6808FA02F42340A3426ED1C0
:1002F0004E68012E05D0022E03D0112E01D0122EF1
:1003000012D186684FEA420C05FA0CF7BE43CF685B
:1003100007FA0CF7374387604668A6430C79C4F3A5
:100320000014944034434460C668570005FA07FC43
:100330008C6826EA0C06BC403443C4604C68022C2E
:1003400001D0122C13D1D40800EB8404A346D4F8B6
:10035000209054074FEAD46A0EFA0AF629EA0609F1
:100360000E6906FA0AF646EA0906CBF82060066826
:100370000C7926EA0C0604F00304BC403443046004
:100380004C68E40065D5364C266846F48046266005
:10039000246822F0030604F480440094314C344471
:1003A000A446D4F808489607370F0EFA07F6B44368
:1003B0002D4EB04201D1002624E02C4EB04201D196
:1003C00001261FE02A4EB04202D102261AE040E088
:1003D000284EB04201D1032614E0274EB04201D18D
:1003E00004260FE0254EB04201D105260AE0244E36
:1003F000B04201D1062605E0224EB04201D10726C7
:1004000000E00826BE402643CCF808681E4E34683B
:100410004F689C43FF0300D51C4334601A4C241DD5
:1004200026684F689E43BF0300D51E432660164EC4
:10043000083634684F689C43FF0200D51C43346083
:10044000114E0C3634684F689C43BF0200D51C43E4
:100450003460521C102AFFF445AFBDE8F88F00004D
:1004600044380240003001400000024000040240D5
:1004700000080240000C024000100240001402403C
:1004800000180240001C0240003C01400AB181619A
:1004900070470904FBE700000148806870470000CE
:1004A0000000002002488168027811448160704792
:1004B000000000200B4810B5016841F40071016094
:1004C000016841F480610160016841F4807101605C
:1004D000032000F08BF8002000F006F800F03EF852
:1004E000002010BD003C024010B5014688B000223B
:1004F0001D2000F05BF81D2000F04AF8134800248E
:10050000016841F002010160006805A900F00200E5
:100510000690684600F016F900F034F90C494000E6
:10052000B0FBF1F10C480B4A491E026040F2E73281
:10053000C0E90324C0E9011400F096FB10B10120CA
:1005400008B010BD044800F0BFFBF9E74038024096
:1005500040420F0000040040D00000200B4882B051
:10056000016841F480410160006800F4804000901F
:100570000648001F016841F080510160006800F0EA
:1005800080500090072002B000F030B8443802409C
:10059000002809DB00F01F02012191404009800082
:1005A00000F1E020C0F8001170470000F0B40E4BDD
:1005B0001B680C46C3F30223C3F10705042D00D9C1
:1005C0000425191D072901D2002300E0DB1E0126A6
:1005D00006FA05F1491E214099409E40761E1640BC
:1005E0003143F0BC01F007BA0CED00E0064900F021
:1005F000070208684FF6FF03184040EA0220034A4A
:1006000010430860704700000CED00E00000FA05A0
:100610002DE9F0470E46050065D0DFF81481D8F8C3
:100620000000F7B200F00F00B04207D288F8007067
:10063000D8F8000000F00F00B04254D128683D4CBB
:10064000810712D5400703D5206840F4E0502060B0
:100650002878000703D5206840F4604020602068B7
:10066000A96820F0F000084320602878C0072DD04A
:10067000304968680839012812D0022813D00328AD
:1006800011D00968890700292DDA216821F00301BA
:1006900001432160FFF700FF814641F2883A0EE0F6
:1006A00009688903EFE709688901ECE7FFF7F4FEC1
:1006B000A0EB0901514502D90320BDE8F08720686D
:1006C000696800F00C00B0EB810FEFD1D8F8001092
:1006D000404601F00F01B14207D90770006800F0F1
:1006E0000F00B04201D00120E7E72878400705D588
:1006F0002068E96820F4E05008432060287800076B
:1007000006D52068296920F4604040EAC1002060D5
:1007100000F058F82168084AC1F30311515CC84041
:100720000649086006480068FFF7DEFE0020C4E7BF
:10073000003C024008380240641A00080C00002007
:10074000040000200F2202600C4A136803F0030328
:100750004360136803F0F0038360136803F4E0530D
:10076000C36012684FF4E05303EAD2020261044806
:10077000006800F00F000860704700000838024071
:10078000003C02400448054900680968044AC1F376
:100790008221515CC84070470C000020083802409C
:1007A000741A00080448054900680968044AC1F33E
:1007B0004231515CC84070470C00002008380240AC
:1007C000741A0008154810B5006810F00C0214489F
:1007D00013D04110042A0FD0082A0ED10F4C241F29
:1007E0002268236802F03F025B0207D52068C0F34D
:1007F0008810A0FB010106E0084610BD2168C1F386
:100800008811A1FB00010023FFF7DCFC2168C1F384
:100810000141491C4900B0FBF1F010BD083802400D
:100820000024F4002DE9F84F04006ED02078DFF8A2
:100830003C93C007A9F104054AD009F104000168FE
:10084000C1F38101012908D00068C0F381000228AA
:100850000AD1D9F80000400206D52868800337D5B0
:1008600060680028E1D033E06068B0F5803F10D0C8
:10087000B0F5A02F286810D020F4803028602868B8
:1008800020F4802028606068A8B1FFF705FE0646C6
:100890000DE0286840F48030F4E740F480202860C0
:1008A000F7E700BFFFF7F8FD801B642873D82868BE
:1008B0008003F7D50CE0FFF7EFFD064605E000BF2B
:1008C000FFF7EAFD801B6428F0D828688003F7D47E
:1008D0002078DFF89C8280074FF0000A3ED5A348BD
:1008E000001D016811F00C0F08D00068C0F38100F2
:1008F00002280BD1D9F80000400207D428688007ED
:1009000016D5E068012800D112E02BE1E068B8B10B
:100910000120C8F80000FFF7BFFD064605E000BF54
:10092000FFF7BAFD801B0228C0D828688007F7D5DA
:100930002868216920F0F80040EAC10028600DE035
:10094000C8F800A0FFF7A8FD064604E0FFF7A4FDE5
:10095000801B02281FD828688007F7D4207800075A
:1009600022D5824E83486169703671B101210160E0
:10097000FFF792FD074604E0FFF78EFDC01B02283B
:1009800009D830688007F7D50EE0C0F800A0FFF75F
:1009900083FD074605E082E0FFF77EFDC01B0228CD
:1009A0007DD830688007F7D42078400768D5DFF815
:1009B000BCB100270BF13C0BDBF80000C0000BD4EE
:1009C000DBF8001041F08051CBF80010DBF800009C
:1009D000012700F080500090674E3068C00510D4A9
:1009E000306840F480703060FFF756FD009005E0FD
:1009F000FFF752FD0099401A022850D83068C00510
:100A0000F6D55A4EA0686C3601280FD005283068FC
:100A100010D020F001003060306820F00400306019
:100A2000A068B8B1FFF738FD00900FE0306840F0E3
:100A30000100F4E740F004003060F7E7FFF72CFD19
:100A40000099411A41F28830814266D830688007A7
:100A5000F4D50EE0FFF720FD009007E0FFF71CFD46
:100A60000099411A41F28830814256D83068800797
:100A7000F4D42FB1DBF8001021F08051CBF8001036
:100A8000A069C8B33949091D0968C1F38101022968
:100A90004AD00228504607D0C8F8600000E03CE089
:100AA000FFF7FAFC04463BE04746C8F86000FFF752
:100AB000F3FC064605E000BFFFF7EEFC801B0228B2
:100AC0002BD828688001F7D4D4E907010843A16A2C
:100AD0002A4A490802EB0141626A41EA821108434D
:100AE00094F82C1040EA0161C9F800100120386622
:100AF000FFF7D2FC044606E036E000BFFFF7CCFC6F
:100B0000001B022809D828688001F7D52CE000BF17
:100B1000FFF7C2FC001B022802D90320BDE8F88FB2
:100B200028688001F4D41FE00128F7D0D9F800002C
:100B3000E26900F48001914214D1226A00F03F0181
:100B400091420FD147F6C071626A0140914209D1CA
:100B5000A26A00F44031914204D1E16A00F0706071
:100B6000884201D00120D9E70020D7E704380240AD
:100B700000004742800E4742007000400000FFFF27
:100B80007047704710B590F83C20012A22D001220E
:100B900080F83C20CA688C6822F4407222434C687A
:100BA00022F4806222430C6822F4006222430C6922
:100BB00022F4805222434C6922F400522243C96934
:100BC000002322F480420A4301684A6480F83C30E2
:100BD000002010BD022010BD70B590F83C20012A05
:100BE00032D0012480F83C40022280F83D20036886
:100BF0005A689D6822F070060A6832435A60134BA7
:100C000002689A4214D0B2F1804F11D0104B9A4230
:100C10000ED0104B9A420BD00F4B9A4208D00F4B7C
:100C20009A4205D00E4B9A4202D00E4B9A4204D102
:100C3000496825F080031943916080F83D40002108
:100C400080F83C10084670BD022070BD00000140D5
:100C50000004004000080040000C00400004014077
:100C6000004001400018004010B5040003D094F883
:100C70003D0010B107E0012010BD002084F83C00C9
:100C8000204600F00DF8022084F83D00211D206868
:100C900000F0B2FC012084F83D00002010BD0000EF
:100CA00008B500680649884208D10648016841F045
:100CB00001010160006800F00100009008BD000023
:100CC00000000140443802400168CA6842F0010255
:100CD000CA600068816801F00701062903D0016835
:100CE00041F0010101600020704770B5044690F8A2
:100CF0003C00012817D0012584F83C50022084F8DC
:100D00003D002068826822F0770222F47F428260F0
:100D10000868502830D00DDC20284DD005DC98B371
:100D200010283BD148E0022070BD302844D0402834
:100D300034D139E0602828D0702806D0B0F5805F23
:100D40002CD0B0F5005F29D10AE0CB68D1E90121B0
:100D5000206800F0C2FC2068816841F0770109E05A
:100D6000CB68D1E90121206800F0B7FC20688168D8
:100D700041F48041816011E0CA684968206800F050
:100D800081FD5021206807E016E0CA6849682068A4
:100D900000F089FD6021206800F0A9FC84F83D5036
:100DA000002084F83C0070BDCA684968206800F0E3
:100DB00069FD40212068EFE7226801461046EBE715
:100DC000704770B50446006801694FF00005C943DB
:100DD000890715D4C168C943890711D4E91E016187
:100DE00001202077206880698007204602D0FFF725
:100DF000E7FF04E000F0DCF8204600F071F9257709
:100E000020680169C943490717D4C168C943490724
:100E100013D46FF0040101610220207720688069FB
:100E200010F4407F204602D0FFF7CAFF04E000F034
:100E3000BFF8204600F054F9257720680169C943BE
:100E4000090716D4C168C943090712D46FF0080115
:100E50000161042020772068C0698007204602D005
:100E6000FFF7AEFF04E000F0A3F8204600F038F9E9
:100E7000257720680169C943C90617D4C168C943E9
:100E8000C90613D46FF01001016108202077206893
:100E9000C06910F4407F204602D0FFF791FF04E0C4
:100EA00000F086F8204600F01BF9257720680169DC
:100EB000C943C90708D1C168C943C90704D1891EFC
:100EC0000161204600F030F920680169C943090634
:100ED00009D4C168C943090605D46FF080010161D6
:100EE0002046FFF74DFE20680169C943490609D431
:100EF000C168C943490605D46FF04001016120462D
:100F000000F01CF920680169C94389060BD4C16847
:100F1000C943890607D46FF0200101612046BDE86E
:100F20007040FFF72EBE70BD10B586B00446142188
:100F30006846FFF77FF92368184C00211848022201
:100F4000A34212D1036843F010030360006800F06D
:100F5000100005904FF4D4400090CDE9012101200C
:100F6000CDE9031069460F4813E00F4CA34212D19C
:100F7000036843F008030360006800F00800059070
:100F80004FF4C0400090CDE90121CDE9031269463C
:100F90000648FFF79FF906B010BD000000000140B1
:100FA000303802400010024000080040000C0240AF
:100FB000704770B5044690F83C000D4601280DD0EE
:100FC000012684F83C60022084F83D0042B1042AE6
:100FD00018D0082A2AD00C2A4DD139E0022070BD41
:100FE000206800F08DFB2068816941F00801816173
:100FF0002068816921F004018161206881692A6982
:10100000114311E0206800F0ABFB2068816941F4D6
:10101000006181612068816921F4806181612068BB
:1010200081692A6941EA0221816124E0206800F097
:10103000CDFB2068C16941F00801C1612068C16928
:1010400021F00401C1612068C1692A69114311E0DE
:10105000206800F0EFFB2068C16941F40061C161C4
:101060002068C16921F48061C1612068C1692A6971
:1010700041EA0221C16184F83D60002084F83C000F
:1010800070BD10B5040003D094F83D0010B107E026
:10109000012010BD002084F83C00204600F00CF830
:1010A000022084F83D00211D206800F0A5FA0120EF
:1010B00084F83D00002010BD08B50068064988424C
:1010C00008D10648016841F004010160006800F0A1
:1010D0000400009008BD00000008004040380240B5
:1010E0007047000010B504460068012200F0E8FADD
:1010F0000B492068884202D00A49884203D1416CDA
:1011000041F4004141642068816801F0070106292B
:1011100003D0016841F001010160002010BD000012
:10112000000001400004014000680349884201D1E9
:10113000FFF7B8B97047000000040040704770B571
:10114000040004D094F83900002510B106E0012015
:1011500070BD84F83850204600F022F8242084F82E
:1011600039002068C16821F40051C160204600F0B8
:10117000ADFB2068016921F490410161206841695B
:1011800021F02A0141612068C16841F40051C16029
:10119000E563202084F8390084F83A00002070BD0F
:1011A00010B586B0044614216846FFF743F813498A
:1011B0002068884220D112480021026842F400329F
:1011C0000260006800F4003005900D481038026895
:1011D00042F001020260006800F0010005900C205E
:1011E00000900220CDE90101032003900720049024
:1011F00069460448FFF76EF806B010BD0044004091
:101200004038024000000240FEE700002DE9F04FA8
:1012100087B014216846FFF70DF850480024016894
:1012200041F010010160016801F0100105910168B1
:1012300041F004010160016801F0040105910168B9
:1012400041F080010160016801F0800105910168B1
:1012500041F001010160016801F00101059101689F
:1012600041F002010160016801F00201059101688D
:1012700041F0080101600068DFF8E49000F0080028
:101280004FF470470590002239464846FFF7FEF8B4
:10129000DFF8D0B04FF41048002241465846FFF71F
:1012A000F5F849F2FF500325CDE90005694602949F
:1012B0002D48FFF70FF843F6FF70CDE900056946AA
:1012C00002942A48FFF706F8012629480096CDE93E
:1012D0000104DFF8A0A069465046FEF7FBFF49F67F
:1012E000F270CDE90005694602945046FEF7F2FF20
:1012F00040F6F370CDE90005694602944846FEF7D2
:10130000E9FF0420CDE90004694648460294FEF74F
:10131000E1FF0097CDE90164694648460394FEF772
:10132000D9FF40F6FF70CDE90005694602945846A2
:10133000FEF7D0FFCDF80080CDE90164694658463C
:101340000394FEF7C7FF002211460620FFF72EF98F
:101350000620FFF71DF907B0BDE8F08F30380240D6
:1013600000040240000C024000100240000802404D
:10137000000011100000024010B596B000240F9438
:1013800010941194129413941C2168461494FEF73F
:1013900051FF202107A8FEF74DFF34483249016074
:1013A0003121C0E9011440F2CF71C0E90314446156
:1013B0008461FFF759FC08B1FEF77DFF4FF48050C0
:1013C0000F900FA92948FFF790FC08B1FEF773FFB3
:1013D0002648FFF756FE08B1FEF76DFF139413A9D8
:1013E00022481494FFF7F8FB08B1FEF764FF602071
:1013F000CDE9000402940394049405940022694604
:101400001A480694FFF7D5FD08B1FEF754FF0422F1
:1014100069461648FFF7CDFD08B1FEF74CFF0822DC
:1014200069461248FFF7C5FD08B1FEF744FF0C22DC
:1014300069460E48FFF7BDFD08B1FEF73CFF079473
:10144000089409944FF400500A94CDE90B4007A981
:1014500006480E94FFF796FB08B1FEF72CFF0348F1
:10146000FFF762FD16B010BD000001401000002023
:1014700010B58AB0002407941C2168460894FEF732
:10148000D9FE1D481B4901604FF4FA71C0E90114EF
:1014900042F21071C0E903148461FFF7F2FD08B154
:1014A000FEF709FF079407A913480894FFF794FB78
:1014B00008B1FEF700FF6020009041F28830CDE9CE
:1014C0000104042269460C480494FFF772FD08B138
:1014D000FEF7F1FE40F6C410019008226946064866
:1014E000FFF767FD08B1FEF7E6FE0348FFF71CFDB6
:1014F0000AB010BD00080040500000200C4810B594
:101500000A4901604FF4E1314160002181600C2201
:10151000C160C0E904128161C161FFF710FE0028BB
:1015200003D0BDE81040FEF7C6BE10BD0044004029
:1015300090000020FEE7FEE770477047704700000C
:1015400030B593B030216846FEF774FE14210CA824
:10155000FEF770FE1C480025016841F080510160D3
:10156000006800F0805011901848016841F48041F3
:1015700001600068022400F4804011900120009076
:10158000000401908001CDE9064004200890642009
:10159000CDE9090407200B906846FFF743F908B12D
:1015A00072B6FEE70CA90F2081E831004FF4A0507D
:1015B0000F90109003210CA8FFF72AF8002801D003
:1015C00072B6FEE713B030BD4038024000700040F4
:1015D0000548016841F47001016003494FF0006063
:1015E000803908607047000088ED00E00148FFF78F
:1015F000E8BB0000D0000020F0B50268254C264D65
:10160000264E274F274B4FF0804CA04209D0604513
:1016100007D0A84205D0B04203D0B84201D09842CA
:1016200004D122F0700E4A6842EA0E02A0421BD09A
:10163000604519D0A84217D0B04215D0B84213D097
:10164000984211D0184DA8420ED0184DA8420BD088
:10165000174DA84208D0174DA84205D0164DA842F4
:1016600002D0164DA84203D122F44075CA682A431D
:101670004D6922F080022A4302608A68C2620A68C9
:101680008262A04201D0984201D10969016301211F
:101690004161F0BD0000014000040040000800402E
:1016A000000C0040000401400040014000440140A3
:1016B0000048014000180040001C0040002000408D
:1016C00010B501F01F030121046A99408C430462A4
:1016D000016A9A401143016210BD10B5846842EA64
:1016E000032224F47F440A432243826010BD8268AF
:1016F00022F070020A4342F0070181607047000047
:10170000F0B5026A22F001020262036A426884694B
:10171000124E24F073050C682C4323F002058B68ED
:101720002B430D4DA84201D0B04205D123F008074C
:10173000CB683B4323F00403A84201D0B04205D15B
:101740004D6922F4407215438A692A4342608461DC
:10175000496841630362F0BD00000140000401409C
:10176000F0B5026A22F010020262026A43688469DC
:101770000D6824F4E64444EA05248D6822F0200232
:1017800042EA05120F4D104EA84201D0B04206D1D8
:10179000CF6822F0800242EA071222F04002A842FB
:1017A00001D0B04207D14D6923F4406343EA850379
:1017B0008D6943EA850343608461496881630262FD
:1017C000F0BD00000000014000040140F0B5026AD5
:1017D00022F480720262026A4368C46922F40072D1
:1017E00024F073050C68124E2C438D6842EA0522E2
:1017F0000E4DA84201D0B04206D1CF6822F400625B
:1018000042EA072222F48062A84201D0B04207D106
:101810004D6923F4405343EA05138D6943EA0513E8
:101820004360C4614968C1630262F0BD00000140C9
:101830000004014030B5026A22F480520262046A58
:101840004268C3690D6823F4E64343EA05238D68C3
:1018500024F4005444EA0534084DA84202D0084D4F
:10186000A84204D14D6922F4804242EA85124260C6
:10187000C36149680164046230BD0000000001409A
:101880000004014010B5036A046A24F001040462F4
:10189000846924F0F00444EA021423F00A020A43A3
:1018A0008461026210BD10B5036A23F01003036265
:1018B0008369046A23F4704343EA023224F0A003EC
:1018C00043EA01118261016210BD00002DE9F0417F
:1018D000044600680169E26821F440511143016146
:1018E0002169A068E26908436169114308432168DE
:1018F000CA6849F20C639A430243CA60206841698E
:10190000A26921F4407111434161E06919276425FE
:101910003226B0F5004F354A354920684FF00008AF
:1019200006D0884201D0904236D1FEF73BFF35E029
:10193000884201D0904202D1FEF734FF01E0FEF769
:1019400021FF61684A18A0FB070148EB0803FEF776
:1019500039FC0146B0FBF5F00201B1FBF5F06FF088
:101960001803584301EB800006EBC000B0FBF5F014
:1019700000F0F80002EB4002B1FBF5F0584301EB38
:10198000800006EBC000B0FBF5F000F00700216816
:1019900010448860BDE8F081FEF7F4FE61688B0FAB
:1019A0008A00A0FB0701FEF70DFC0146B0FBF5F035
:1019B0006FF01802504301EB800006EB0010B0FB03
:1019C000F5F000F0F002B1FBF5F002EB0012B1FB14
:1019D000F5F06FF01803584301EB800006EB0010A0
:1019E000B0FBF5F000F00F00D1E70000001401405B
:1019F00000100140FEE70907090E002804DB00F192
:101A0000E02080F80014704700F00F0000F1E020A3
:101A100080F8141D704702E008C8121F08C1002A90
:101A2000FAD170477047002001E001C1121F002A5F
:101A3000FBD17047FEF73EFDFFF782FDFFF7E6FBA7
:101A4000FFF79AFCFFF714FDFFF758FD0421044847
:101A5000FFF748FB08210248FFF744FBFEE70000C0
:101A600050000020000000000000000001020304FC
:101A70000607080900000000010203049C1A000880
:101A80000000002010000000161A0008AC1A000820
:101A90001000002000050000261A000801000000C8
:0C1AA00010000000000000000024F40012
:040000050800018965
:00000001FF
